:020000021000EC
:10200000C00A0020A13501009D3501009D35010069
:102010006D6501009D3501009D3501009D35010074
:102020009D3501009D3501009D3501009D35010064
:102030009D350100183B03004D2F01009D35010027
:102040009D3501009D3501009D3501009D35010044
:102050009D3501009D3501009D350100352A0100A7
:102060009D3501009D3501009D3501009D35010024
:10207000517401009D3501009D3501008931010039
:10208000953101009D3501009D3501009D35010010
:102090009D3501009D3501009D3501009D350100F4
:1020A0009D350100B53B0100913B01009D350100CC
:1020B0009D3501009D0A03009D3501007D1403003C
:1020C00035140300311403006D0C03007914030070
:1020D00039140300511403003D140300DD14030000
:1020E00059EF020021F10200BD1403009D350100EB
:1020F000ED5B01009D3501009D3501009D3501001E
:102100009D3501009D3501009D3501009D35010083
:102110009D3501009D3501009D3501009D35010073
:102120009D3501009D3501009D3501009D35010063
:102130009D3501009D3501009D3501009D35010053
:1021400010B5054C237833B9044B13B1044800E0B3
:1021500000BF0123237010BD500F002000000000BD
:10216000FC84030008B5034B1BB10349034800E09E
:1021700000BF08BD00000000540F0020FC840300D5
:10218000A3F5803A704700BF174B002B08BF134BD5
:102190009D46FFF7F5FF00218B460F461348144A72
:1021A000121A1FF072FF0E4B002B00D098470D4BF8
:1021B000002B00D098470020002104000D000D489E
:1021C000002802D00C4800E000BF1FF0F3FE200002
:1021D000290000F023FC1FF0D9FE00BF000008001A
:1021E0000000000000000000C00A0020500F002086
:1021F000402A0020000000000000000000F002B8AB
:1022000000F07AB8002370B5344C1946206892B0BB
:102210000222806820F060F800232068022219461C
:10222000406820F059F801AA15462D4B03F1180615
:10223000144618685968083303C4B3422246F7D1DC
:1022400018682060032001F07FF860B1254C264912
:10225000206803F012FD01F097F801F096F8294686
:10226000206803F00AFD214B186803F0C1FC08AA9E
:1022700015461F4B03F120061446186859680833A9
:1022800003C4B3422246F7D1186899889B7920602D
:10229000A1800320A37101F057F860B1114C1249DD
:1022A000206803F0EAFC01F06FF801F06EF82946AF
:1022B000206803F0E2FC00F013FC01220DF10301A1
:1022C000FF2000F033FC9DF803100A481FF0DCFFEC
:1022D00000F0DCFB00F0C0FC12B070BD0C0D002063
:1022E000E0340300E0100020C8340300B40B0020E9
:1022F000FC340300CD340300F8B52DED028B00F063
:10230000BDFC002874D03F4B3F49186800F0E8FC42
:102310003E4B3F490446186800F0E2FC0546204663
:1023200000F002FD0446284600F0FEFC394905464F
:10233000204600F0A9FD04463749284600F0A4FDD8
:102340006443364E364F3368364D234433603B6822
:1023500000FB00302B883860013320462B8000F0D2
:102360000BFD002844D0304C2A8823880133238079
:102370003B68B3FBF2F300EE103AB8EE400A20F0EF
:102380004BFF20F019FF2A883368B0EE408AB3FB78
:10239000F2F300EE103AB8EE400A20F03DFF20F0D4
:1023A0000BFFB5EE408AF1EE10FA27D0B5EE400AE9
:1023B000F1EE10FA22D088EE007AF2EE0A6ADFED32
:1023C0001B7A47EE667AFCEEE77A194B17EE900A15
:1023D000C3ED007A00F09CF80F222388B3FBF2F2E1
:1023E000C2EB02129B1A9BB213B933603B602B8085
:1023F000BDEC028BBDE8F84000F06EBD9FED0D7A9C
:10240000DBE700BF9C0F0020A00F0020A40F0020DE
:10241000A80F0020740F0020840F0020700F0020F0
:10242000800F00208C0F00207C0F00200000DC4279
:102430006C0F002000000000084B020E1A70020C06
:102440005A70020A9A70064AD87011781971517838
:1024500059719178D2789971DA717047920F002092
:102460008E0F002030B5204C85B0FFF7E5FF2346E6
:1024700008220021182012F0ADFF082200211820A8
:10248000009403AB12F074FF054622460821182081
:1024900012F0CEFF35B3154C1549206803F0EDFB63
:1024A0001449206803F0E9FB00F06EFF00F06DFFB7
:1024B000114B124A009312492323206803F0DDFBDD
:1024C0002B46104A1049206803F0D7FB284600F03D
:1024D00083FF0E49206803F0D0FB0549206803F014
:1024E000CCFBFEE705B030BD920F0020E0100020CD
:1024F000FA34030023350300BC35030028350300FC
:1025000035350300413503004435030059350300D8
:1025100030B5204C85B0FFF78FFF234608220021FD
:102520001B2012F057FF082200211B20009403AB50
:1025300012F01EFF0546224608211B2012F078FFEC
:1025400035B3154C1549206803F097FB14492068F2
:1025500003F093FB00F018FF00F017FF114B124A35
:10256000009312493C23206803F087FB2B46104A56
:102570001049206803F081FB284600F02DFF0E492A
:10258000206803F07AFB0549206803F076FBFEE73C
:1025900005B030BD920F0020E0100020FA34030097
:1025A000233503009D35030028350300353503002E
:1025B0004135030044350300593503007FB5264DEE
:1025C000030E2B70030C6B70030A04460021AB70E2
:1025D000E8702B4604221E2012F0FCFE4FF47A71A4
:1025E000B4FBF1F001FB1041002933D104221E207D
:1025F000009503AB12F0BCFE06462A4604211E20BD
:1026000012F016FF36B3154C1549206803F035FB60
:102610001449206803F031FB00F0B6FE00F0B5FE6F
:10262000114B124A009312496723206803F025FBDF
:102630003346104A1049206803F01FFB304600F073
:10264000CBFE0E49206803F018FB0549206803F013
:1026500014FBFEE704B070BD8E0F0020E0100020D8
:10266000FA340300233503007935030028350300CD
:102670003535030041350300443503005935030067
:1026800070B50368A04A23F47F4323F00703934205
:1026900088B005D09D4A934200F04E8108B070BDCD
:1026A0000DF10F0104A812F0D9FE044630B3984D85
:1026B0009849286803F0E1FA9749286803F0DDFAA1
:1026C00000F062FE00F061FE944B954A009395493C
:1026D0007B23286803F0D1FA2346934A934928685C
:1026E00003F0CBFA204600F077FE9149286803F00A
:1026F000C4FA8849286803F0C0FAFEE79DF815304F
:1027000001468DF818309DF8143008228DF81930E4
:102710009DF8133012208DF81A30FF238DF81B30EE
:10272000FE238DF81C309DF812308DF81D309DF879
:1027300011308DF81E309DF810308DF81F3006AB2B
:1027400012F048FE054630B3714C7249206803F020
:1027500094FA7149206803F090FA00F015FE00F039
:1027600014FE6E4B6E4A00936E498B23206803F073
:1027700084FA2B466C4A6D49206803F07EFA28469D
:1027800000F02AFE6A49206803F077FA6149206860
:1027900003F073FAFEE7674E304612F075FD05460A
:1027A00030B35B4C5B49206803F067FA5A492068F4
:1027B00003F063FA00F0E8FD00F0E7FD574B584ADC
:1027C000009358498F23206803F057FA2B46564A46
:1027D0005649206803F051FA284600F0FDFD54499F
:1027E000206803F04AFA4B49206803F046FAFEE7F6
:1027F0000221307812F082FD044630B3444D454941
:10280000286803F03AFA4449286803F036FA00F0E1
:10281000BBFD00F0BAFD414B414A0093414994236E
:10282000286803F02AFA23463F4A4049286803F003
:1028300024FA204600F0D0FD3D49286803F01DFA37
:102840003449286803F019FAFEE7A02203460090F5
:102850001146307812F030FD054630B32C4C2D492E
:10286000206803F00AFA2C49206803F006FA00F009
:102870008BFD00F08AFD294B294A009329499D23AD
:10288000206803F0FAF92B46274A2849206803F00C
:10289000F4F9284600F0A0FD2549206803F0EDF981
:1028A0001C49206803F0E9F9FEE70221307812F0B4
:1028B00039FD054600283FF4F1AE154C1549206856
:1028C00003F0DBF91449206803F0D7F900F05CFD50
:1028D00000F05BFD114B124A00931249A1232068BE
:1028E00003F0CBF92B46104A1049206803F0C5F9D4
:1028F000284600F071FD0E49206803F0BEF9054935
:10290000206803F0BAF9FEE7A0000100A00006016C
:10291000E0100020FA340300233503006A35030079
:1029200028350300353503004135030044350300E5
:1029300059350300C00A00202E4C0221207812F0E5
:10294000DDFC054630B32C4C2C49206803F095F98A
:102950002B49206803F091F900F016FD00F015FDF9
:10296000284B294A00932949AF23206803F085F9B1
:102970002B46274A2749206803F07FF9284600F0B4
:102980002BFD2549206803F078F91C49206803F0E5
:1029900074F9FEE70221207812F0C4FC05460028F5
:1029A0003FF47CAE144C1549206803F066F91449D5
:1029B000206803F062F900F0E7FC00F0E6FC114B40
:1029C000114A00931149B423206803F056F92B46AD
:1029D0000F4A1049206803F050F9284600F0FCFC2B
:1029E0000D49206803F049F90449206803F045F9CE
:1029F000FEE700BFC00A0020E0100020FA34030008
:102A0000233503006A3503002835030035350300FC
:102A100041350300443503005935030008B504F07F
:102A200034FDFFF7EBFB04F03DFDFFF7E9FB03F09E
:102A30001FFFF8E7074B5B69DB0709D50121064B50
:102A40001A6801321A60054A51611868FFF7B6BD6D
:102A5000704700BF00800450CC0F002000A004503D
:102A600010B5242001F00AFB4FF47A74B0FBF4F4A3
:102A7000242001F003FB044B1A6BDC619A6942F0DD
:102A800001029A6110BD00BF0080045030B50125DD
:102A900085B001213A2001F0CFFA0F4C012124200A
:102AA00001F0CAFA0E22002168461FF0EEFA6946CC
:102AB00020468DF8005002F07CFC1022A3692B43C5
:102AC000A361064B83F8072380221A60E560FFF7B5
:102AD000C7FF05B030BD00BF0080045000E100E03A
:102AE00030B5012185B02F2001F0A6FA01230B2279
:102AF0000221032002F0A4F903216C4601230B22DA
:102B0000084602F09DF9074D074B0FCB84E80F00F4
:102B10002146286802F01EFA56222B68DA6105B0B9
:102B200030BD00BFC40A0020DC35030010B50D4BDA
:102B300086B0019301230C4C8DF8000004912068AD
:102B400001A9CDF808D0ADF80C30ADF8142002F092
:102B50003FFB012801D006B010BD206802F01CFA2E
:102B6000F7E700BFAE000400C40A002030B589B00A
:102B70000D4602220DF106010446FFF7D7FF0F4B69
:102B80008DF80950039302AB049302230C4D03A963
:102B900028688DF80840ADF8143002F019FB0128C0
:102BA00007D0012220460DF10701FFF7BFFF09B052
:102BB00030BD286802F0F0F9F1E700BFAE00010077
:102BC000C40A002007B501220DF107010720FFF715
:102BD000ADFF9DF80710072021F0030141F002012D
:102BE000FFF7C4FF03B05DF804FB07B501220DF148
:102BF00007010720FFF79AFF9DF80710072021F033
:102C00001C0141F00401FFF7B1FF03B05DF804FBC4
:102C100086210920FFF7AABF07B501220DF10701A0
:102C20000720FFF783FF9DF80710072041F04001C0
:102C3000FFF79CFF03B05DF804FB08B500210220FC
:102C4000FFF794FF00210420FFF790FFBDE8084044
:102C500000210320FFF78ABF08B503210620FFF7F4
:102C600085FFFFF7AFFFFFF7C0FFFFF7D1FFFFF7CB
:102C7000D3FFBDE80840FFF7E0BF000007B5012221
:102C800002200DF10201FFF751FF012204200DF196
:102C90000301FFF74BFF9DF802209DF803309A4295
:102CA00015D0042205200DEB0201FFF73FFF0120A4
:102CB000BDF80430074A5BBA9BB21360BDF806301A
:102CC000054A5BBA9BB2136003B05DF804FB0020B9
:102CD000FAE700BF9C0F0020A40F002000000000B6
:102CE0002DE9F041D1F80080054640460C461EF023
:102CF00023FF0BA3D3E900231EF0A2FC06462846BF
:102D00000F461EF019FF02460B46304639461EF0AC
:102D1000C7FD1EF07BFF2060A0EB0800BDE8F0813E
:102D200014AE47E17A14EE3F0F4970B50A680F4CB4
:102D30000F4D236855F8226045F822009B1B034481
:102D400023600A24013292FBF4F504FB15220A6089
:102D500008490A68092ADCBF01320A600A6893FB45
:102D6000F2F3181A70BD00BFD00F0020D40F00205E
:102D7000D80F0020C80F0020354B70B59842354958
:102D8000354B0BD900201860344B08701860344B59
:102D90001860344B1870344B186070BD0A78012AE3
:102DA0001AD0022A0BD03AB941F26F74A04203D96B
:102DB00001240C702B490A7018600020EDE71A6896
:102DC000824281BF274C22780132227041F26F7219
:102DD0009042F1D80022EEE71A688242204A05D2DA
:102DE000224909681160204A1060E5E710681B4A13
:102DF00013681060C01AD0D04EF66022B2FBF0F01B
:102E00001B4D1C4C2B7844F823000020024654F83C
:102E1000046B01320F2A3044F9D10133DBB2B3FB2A
:102E2000F2F2C2EB02129B1A134A2B701378134C66
:102E30000E2B9CBF0133137013782060B0FBF3F0AE
:102E40000F4B186002230B70FFF70CFB0120A4E767
:102E5000A0860100B80F002000100020BC0F002049
:102E6000B40F002048100020C00F0020CC0F00201D
:102E7000AC0F00200410002040100020441000205F
:102E8000B00F002000000000F8B54D680C460D6042
:102E90001EF052FE0CA3D3E900231EF0D1FB064620
:102EA00028460F461EF048FE09A3D3E900231EF072
:102EB000C7FB02460B46304639461EF0F1FC1EF0B9
:102EC000A5FE60602844F8BD48457C5EEF63CF3FB7
:102ED0005CDDC150084EE03F70B5164D164C2B68B6
:102EE00022689B1A632B18D9144B154A1868154B86
:102EF0001B68C11A914211DD134E31780E290DD88D
:102F00000131C9B23170090141F00601092001F017
:102F1000F601FFF72BFE2B68236070BD1B1A93424E
:102F2000F9DD094B19780029F5D00139C9B21970BA
:102F3000E9E700BFCC0F0020C40F0020A00F002045
:102F400070110100A80F0020C80A002007F02CBA59
:102F500004F0E6BA10B5044600F066F92046FFF723
:102F60008FFB10BD0120704700B5C3B007F03EF9DC
:102F700007F067F948B1FFF7F5FF30B101A812F08B
:102F80007DF910B901A8FFF7E5FF43B05DF804FB38
:102F900008B5012000F042FA202000F03FFABDE819
:102FA0000840402000F03ABA08B50321802001F023
:102FB0009DFB03214FF4806001F098FB03214FF447
:102FC000906001F093FB08214FF4C06001F08EFB8C
:102FD00008214FF4F06001F089FB08213E2001F048
:102FE00085FB08212D2001F081FB002008BD000099
:102FF00008B5184B1B68C3F30743012B0ED1164BC2
:1030000004205A6E4FF480231449520358BF144AC7
:103010004B6601F51041086258BF536602F006FD89
:1030200000F025FA02F08EFC02F01EFD02F0ACFC6E
:1030300002F0E0FC02F0E4FCFFF7B6FF02F092FCC5
:1030400000F00AFA00F06CFB00F0C6FDBDE8084095
:1030500003F01EBB0080E00F008000500090005085
:1030600000A0005008B500F03DFD00F02BF800F086
:10307000CFF8BDE8084000F0D1B808B500F0CCF9B1
:1030800003F052FF02F0F2FC02F040FE05F0E4FF14
:1030900003F0BAF904F0AEFF06F0E4F9BDE8084029
:1030A00000F064B808B502F025FC02F033FCBDE87E
:1030B0000840FFF74DBF00F069B970477047FFF750
:1030C00053BF704708B53A20012100F0B5FFBDE8B5
:1030D0000840014800F014BC980B002070B5124E57
:1030E00092B035460BAC0FCD0FC495E80700032313
:1030F00084E8070006F11C0506AC8DF845300FCDBD
:103100000FC42B68236002AC06F130030FCB84E8B8
:103110000F00064B214600930BAA06AB044803F0B0
:1031200073F812B070BD00BFF83903004C100020D6
:10313000B8100020831E012B0AD8012908D80422C8
:10314000094B1B69C3F340130521002001F078BE31
:103150000239012907D8012805D8034B00221B6931
:10316000C3F34013F0E7704700C0035008B50449AB
:10317000044803F05BFBBDE80840FFF7AFBF00BFAA
:10318000AC0B002090100020014B186803F000B930
:10319000B8100020FFF7F8BF014B1A6A18681047F3
:1031A000B8100020012070470120704710B507F0CB
:1031B00089F80446FFF7F6FF002814BF20460020D8
:1031C00010BD38B503F056FC044607F089F8042812
:1031D00017D002284FF0000508BF0124FFF7DCFFDD
:1031E000042810D0022808BF0124FFF7DDFF0428BF
:1031F0000BD0022808BF0124002D18BF0024204650
:1032000038BD0125EAE70125EFE70024F7E70000D4
:10321000014800F0CBBA00BF383A0300014800F083
:10322000E7BB00BF503A0300036837B523F47F4380
:103230003A4A23F007039342044664D002F18272B3
:10324000934268D1B0F80510332964D10122344B80
:1032500000791A70002212F0D3F8054630B3314CD1
:103260003149206802F009FD3049206802F005FD6F
:1032700000F08AF800F089F82D4B2E4A00932E4971
:103280003F23206802F0F9FC2B462C4A2C49206889
:1032900002F0F3FC284600F09FF82A49206802F06B
:1032A000ECFC2149206802F0E8FCFEE7207912F0EE
:1032B0004DF8054600282ED01A4C1B49206802F014
:1032C000DCFC1A49206802F0D8FC00F05DF800F040
:1032D0005CF8174B174A009317494323206802F004
:1032E000CCFC2B46154A1649206802F0C6FC28463D
:1032F00000F072F81349206802F0BFFC0A49206808
:1033000002F0BBFCFEE7064B1B7823B103B0BDE81F
:10331000304004F0F9B803B030BD00BFA000060192
:10332000DC100020E0100020FA34030023350300F5
:10333000D33A0300683A03003535030041350300F2
:1033400044350300593503000B4B02461B788BB103
:103350000A4B1B78834234BF00200120084B1B78A6
:103360003BB1084B1B7843FA02F212F0010F08BF81
:10337000002070470120F1E7C30B0020C40B0020A0
:10338000E4100020C50B002070477047012208B5EB
:10339000074B1A700022074B1A700422064B1A7052
:1033A0001F22064B1A7002F02FFC054B186008BD57
:1033B000C30B0020E4100020C40B0020C50B00202C
:1033C000E0100020024B0349186802F056BC00BF11
:1033D000E0100020F33A030070B50C4C0C4906468F
:1033E000206802F04AFC02F00FFC0546206802F05B
:1033F000FFFB3046FFF7E6FF284602F0F9FB2068A6
:103400000449BDE8704002F038BC00BFE010002065
:10341000F53A0300F73A03000F207047082808B573
:103420000DD004DC0138012809D90E2013E0202832
:103430000AD04028F9D100230422194602E00422D0
:1034400000231146184603E0042200231146012000
:1034500001F0F6FC002008BD08B501213A2000F07B
:10346000EBFDFFF795FDBDE8084000F005B8012130
:103470003A2000F0E1BD00002DE9F047434D88B04F
:1034800001AC0FCD0FC495E80700012584E80700C3
:1034900001213A2000F0D0FDDFF8FC800121282036
:1034A00000F0CAFD3A4B404601A903938DF8125033
:1034B00002F0CCF82B4604220021022001F0C0FCCF
:1034C0002A4629460023022001F0BAFC02212B469D
:1034D0000846042201F0B4FC042203212B460220FA
:1034E00001F0AEFC4FF002132A4C0226C4F830362D
:1034F000A3F58033C4F82C361C230827C4F834669F
:1035000004F5005AC4F81C364FF4487003F0D6FF97
:1035100004F580591420CAF8707003F0CFFF2320FF
:10352000C9F8707003F0CAFFB9214046CAF870703C
:1035300002F0F2F8002330461A461946C9F87070B6
:1035400001F07EFC002329461A46304601F078FC43
:103550002B4631463046002201F072FC2B460022F9
:103560000321304601F06CFC404601F0BFFF002112
:103570002820C4F83016C4F82C16C4F83416C4F841
:103580001C1600F059FD08B0BDE8F087FC3A0300B6
:1035900000127A0000C0035000C00550FEE7000092
:1035A00008B500F02DF8124B12498B4212D30020BF
:1035B000114B12498B4218D3FEF7E6FD186850F8FC
:1035C0002240586840F82240013298688242F5D380
:1035D0000C33EAE70022F8E71C6844F822000132C5
:1035E0005C68A242F8D30833E4E70022F8E700BFA2
:1035F0000485030010850300108503001085030077
:103600004FF400414FF0FF30124B134A10B59A604F
:10361000D3F8882042F47002C3F888200F4A9166DC
:1036200001F1884101F5005210664FF6DF705066D7
:103630000220C3F8D000BFF34F8FBFF36F8F082471
:103640004FF440330648C0F88041D36004600B61FA
:1036500010BD00BF00ED00E0002001000090005010
:1036600000E100E0014B1868704700BFCC0B002060
:10367000084B1B6F03F00703022B04D0032B05D06C
:10368000012B05D0FEE7044B18687047034BFBE79E
:103690000348704700800050CC0B0020D00B002066
:1036A000002D310108B5FFF7E3FF054B1B6FC3F396
:1036B00003330133B0FBF3F0024B186008BD00BFC9
:1036C00000800050C80B00200048704700B4C404BC
:1036D000014B1868704700BFD00B0020054B1860E5
:1036E000054B1B6F03F00703032B01D1FFF7DABF74
:1036F000704700BFD00B00200080005000207047B2
:1037000000487047002D31014FF4004070474FF4DE
:103710007A707047014B1868704700BFD40B0020C7
:103720000020836A10B5B3F5903F0AD2064C227888
:1037300012F0FD0F04D1DB69984708B9012323700B
:1037400010BD4FF48170FBE7E51000204FF00053EF
:10375000074A1A60BFF34F8F0649074BCA6802F445
:10376000E0621343CB60BFF34F8F00BFFDE700BFA4
:1037700002020FF000ED00E00400FA0500230360F0
:10378000704703680B6001607047000005490A68D4
:103790001318054883428CBF4FF0FF320B60104670
:1037A000704700BFD80B002000800020436803B1A1
:1037B000184722207047704710B40A681378022B0C
:1037C00014D014203023147913FB040303F1A04315
:1037D00003F570331B685079C340DB4303F00103EA
:1037E000137008465DF8044BFFF7E5BF5DF8044B26
:1037F0007047000037B50468012105463A2000F003
:103800001BFC002301226179207901F019FB1422AD
:103810003023217913FB012303F1A04303F5703317
:103820001B686279D340DB4303F001032370A37963
:10383000022B0ED100F056F92A460749607900F0B4
:103840007BF90123024661792079CDE9003301F04B
:103850009FFA002003B030BDB93701000368187823
:10386000704702681378022B27D014213023107977
:1038700013FB001303F1A04303F5703351791B6868
:10388000CB40917903F00103012912D1508843EA1A
:1038900040034FF6E07063F03F039BB2834202D1D6
:1038A0001170538070474FF6DF718B42F9D10021C0
:1038B000F6E711B983F001031370704703681A78B3
:1038C000022A03D100225A80FFF794BF704713B534
:1038D00004682378022B10D0A379022B0BD100218E
:1038E000607900F017F90023627920791146CDE95B
:1038F000003301F04DFA0223237002B010BD000026
:103900002DE9FF410368374A0446934204D0364A02
:10391000934251D12F2000E02E20012100F08CFB9A
:1039200001230A226179207901F08AFA01230A220F
:10393000E179A07901F084FA092601272B4D4FF097
:10394000300842F210032279617908FB025207FA2B
:1039500001F1D150642003F0B1FD41F2100123794F
:10396000627908FB035307FA02F264205A5003F00D
:10397000A5FD013EE3D120681A4B98421FD10323D5
:10398000C5F890346279237943EA0243C5F8943448
:10399000E279A37943EA0243C5F8983440F201136F
:1039A000ADF80030E36869460293A3680193237C75
:1039B0008DF80C3001F0CEFA04B0BDE8F0810A4B6E
:1039C0009842EBD10323C5F8A0346279237943EA06
:1039D0000243C5F8A434E279A37943EA0243C5F867
:1039E000A834DBE70000015A0080065000C00350F5
:1039F000D0E90003184710B5044601213A2000F031
:103A00001BFBA3782078B3FA83F3042261785B0967
:103A100001F016FA002010BD10B50122437801789C
:103A2000847830209A40054B00FB01331CB942F2E8
:103A300010015A5010BD41F21001FAE700C00350C6
:103A400010B5012243780178847830209A40054BE4
:103A500000FB01331CB941F210015A5010BD42F273
:103A60001001FAE700C003500122417803788A4030
:103A700030214B4343F2100103F1A04303F57033AF
:103A80005A507047302310210246007813FB001370
:103A900003F1A04303F5703350781B68C34003F073
:103AA000010093780BB980F00100704770B50446AF
:103AB00001250B4E04B970BD94FAA4F0B0FA80F061
:103AC00005FA00F306EB001224EA03045368002B06
:103AD000F0D0117B11B191689847EBE79847E9E77F
:103AE000E810002008B5192000F09EFF28B14FF023
:103AF0000072074BC3F880211A601A2000F094FF6F
:103B000028B14FF08062024BC3F880211A6008BDD3
:103B100000E100E038B505460C4600F07CFF0022CD
:103B2000044B03EB05135C601A73BDE8384000F0EA
:103B300078BF00BFE8100020F8B505460F461646CE
:103B400000F069FF104B05F0FC02D3F824140023A9
:103B5000EC1804F00304144321FA04FC1CF0010FD8
:103B600007D00133042BF3D1FF2400F05AFF204685
:103B7000F8BDFF2CF9D00122044B03EB0413C3E979
:103B800001761A73F1E700BF00C00350E81000206F
:103B9000074BD3F82404D3F8202403F50053104036
:103BA00000F0553020F05020C3F82004FFF77EBF0E
:103BB00000C00350074BD3F82404D3F8202403F5A6
:103BC0000053104000F0AA3020F0A020C3F82004D9
:103BD000FFF76CBF00C00350024B1968024B186816
:103BE00016F034B8E00B0020DC0B0020704700001A
:103BF00037B5920004460D4601921FF05DFC431C50
:103C00000BD060B929462046019A1EF007FA002819
:103C1000044808BF002003B030BD0348FBE7034859
:103C2000F9E700BF10E000F021E000F024E000F030
:103C300013B5044601A801F0A3FB9DF8063001224C
:103C400023804FF4807300206380054B9B680A3308
:103C500003F01F0302FA03F3636002B010BD00BF5C
:103C60000080E00F01F008BB08B501F0F5FA002074
:103C700008BD10B5044644EA010313F003030846E7
:103C800009D1934201D1002010BD54F8231040F80F
:103C900023100133F5E7214692001EF0CFF9F2E739
:103CA00010B504461FF000FC431C15D0B0B90C4BF6
:103CB00020469B680A3303F01F020123934023F040
:103CC00003032344984201D1002010BD50F8042B77
:103CD0000132F7D00348F8E70348F6E70348F4E772
:103CE0000080E00F0EE000F021E000F024E000F0A2
:103CF00008B500F089FE014B186008BD7819002056
:103D0000014B186800F084BE781900200A4601397A
:103D1000014402F0D5BB0000044BD3F88420D20646
:103D2000FBD4D3F88400C0F38110704700400050EA
:103D300038B5104B0546D3F820310C4603F0030389
:103D4000022B0BD0032B0DD0012B0FD1FFF78AFCD8
:103D5000052305B1286004B1236038BDFFF7B8FC26
:103D60000323F6E7FFF7CCFC0223F2E70023184613
:103D7000EFE700BF0080005073B50D4600210E4BE9
:103D80000191D3F88041064604F00304012C09D0C8
:103D9000022C0CD00C460EB1019B336005B12C6097
:103DA00002B070BD01A8FFF7C3FF0F24F3E7FFF7D0
:103DB000A7FC0190EFE700BF0080005038B5174B1B
:103DC0000546D3F824310C4603F00703013B052BCD
:103DD00020D8DFE803F0030F171B0B13FFF742FC9B
:103DE000052305B1286004B1236038BDFFF73AFC14
:103DF0000623F6E7FFF76CFC0323F2E7FFF768FC06
:103E00000423EEE7FFF77CFC0223EAE7FFF776FCEA
:103E10000723E6E700231846E3E700BF00800050D1
:103E200038B5104B0546D3F840310C4603F0030378
:103E3000022B0BD0032B0DD0012B0FD1FFF764FC0D
:103E4000092305B1286004B1236038BDFFF762FC87
:103E50000823F6E7FFF75BFC0B23F2E70023184685
:103E6000EFE700BF0080005038B5134B0546D3F88C
:103E700000320C4603F00703013B032B18D8DFE8A0
:103E800003F0020A0E12FFF73FFC092305B1286078
:103E900004B1236038BDFFF73DFC0823F6E7FFF7C8
:103EA00036FC0B23F2E7FFF7FDFB0E23800AEDE75C
:103EB00000231846EAE700BF0080005038B5104BD9
:103EC0000546D3F840320C4603F00303022B0BD017
:103ED000032B0DD0012B0FD1FFF716FC092305B1E1
:103EE000286004B1236038BDFFF714FC0823F6E70F
:103EF000FFF70DFC0B23F2E700231846EFE700BFA6
:103F00000080005038B5104B0546D3F860310C46A0
:103F100003F00303022B0BD0032B0DD0012B0FD189
:103F2000FFF7F2FB092305B1286004B1236038BD17
:103F3000FFF7F0FB0823F6E7FFF7E9FB0B23F2E7B7
:103F400000231846EFE700BF0080005010B40D4C6E
:103F50000B46D4F8204204F00304012C0AD0022CB2
:103F60000CD008B1002101600BB100221A605DF88D
:103F7000044B70475DF8044BFFF7DABE5DF8044B65
:103F8000FFF74EBF00800050B0F5207F1FD009D84A
:103F9000B0F5007F15D003D868B1B0F5C07F0AD066
:103FA00000200CE0B0F5607FFAD10B4BD3F8800015
:103FB000C0F3011003E0084B186FC0F30330013069
:103FC0007047054BD3F89000C0F30460F7E7024B4D
:103FD000186FC0F38020F2E7008000504FF40032E9
:103FE0000E4B014610B500209A66FFF7CDFF41F653
:103FF000713248430A490B4B88428CBF4FF4801002
:104000000020DC69DA639A6822F4401202439A6065
:10401000E20344BF0022DA6310BD00BF00900050ED
:10402000005A62020000035008B5FFF74DFBBDE8DF
:1040300008400021FFF7D2BF420910B510D0012A75
:1040400010D00B4B0B4C022A18BF234600F01F0068
:1040500051B103F58053012202FA00F0186010BD3F
:104060001346F3E7044BF1E703F50053F3E700BF12
:104070006880005060820050648000501FB50023AB
:1040800080280446019371D02AD8002872D0A0F16C
:104090002004412C32D8412C30D8DFE804F06B6E7C
:1040A0006B6E7D7D7D7D6E6E873C9D623C6E6E6E1F
:1040B0002F2F2F2F2F2F82546E6E6EA7A26E2F2FB1
:1040C0002F2F2F2F2F2F2F2F2F2F2F6B2F6B6B6B10
:1040D0007D2F2F2F2F2F2F2F2F2F2F2F2F2F6B6B2A
:1040E000B0F5806F58D021D8B0F5007F4FD008D8F8
:1040F000B0F5807F5FD0B0F5C07F3BD0019804B0B1
:1041000010BDB0F5607F42D0F8D8B0F5207F34D034
:10411000B0F5407FF2D1FFF7C5FA02464FF42070A8
:10412000FFF732FFB2FBF0F0400821E0B0F5C06FBE
:1041300052D00DD8B0F5A06F33D0B0F5B06F35D0F8
:10414000B0F5906FDAD1002101A8FFF737FED5E76F
:10415000B0F5E06F45D0B0F5F06F47D0B0F5D06F57
:10416000CCD1002101A8FFF77FFEC7E7FFF780FA57
:104170000190C3E7FFF796FAFAE7FFF793FA0246D2
:104180004FF42070FFF700FFB2FBF0F0F0E7FFF70D
:104190006FFA02462046F5E7002101A8FFF7C8FDA7
:1041A000ACE7002101A8FFF7D1FEA7E7002101A895
:1041B000FFF7E2FDA2E702934FF0E0231B695B07E4
:1041C00005D5FFF76FFA0290029B019396E703A9CA
:1041D00002A8FFF725FEF7E7002101A8FFF720FE60
:1041E0008CE7002101A8FFF769FE87E7002101A8FD
:1041F000FFF788FE82E7000008B58020FFF73EFF4A
:10420000034B98429EBF4FF48032024B1A6708BDA1
:10421000005A620200A000501FB50023B0F5807F55
:10422000019377D028D8382800F094800BD8243810
:10423000092810D809280ED8DFE800F067676767FB
:104240000D0D620D377D52285FD008D83D283BD038
:104250003E2800F08480019805B05DF804FB8028BA
:10426000F9D1414B1B6F03F00703013B032BF2D83D
:10427000DFE803F044413F6CB0F5D06F5BD019D854
:10428000B0F5A06F66D00AD8B0F5806F3DD0B0F51C
:10429000906FE0D1002001A9FFF790FDDBE7B0F5BA
:1042A000B06F2DD0B0F5C06FD5D1002001A9FFF7B8
:1042B000B7FDD0E7B0F5006FECD00AD8B0F5E06FED
:1042C0004DD0B0F5F06FC6D1002001A9FFF71AFE5E
:1042D000C1E7B0F5086FBED1234BD3F8003103F02E
:1042E0000303022B2CD0032B2ED0012B30D1FFF750
:1042F000EFF9032300E005230193ACE70223FBE77A
:10430000002001A9FFF738FDA5E7002001A9FFF76C
:104310000FFDA0E702934FF0E0231B695B0705D573
:10432000FFF7C0F90C230393039BE5E703A902A859
:10433000FFF776FDF8E7002001A9FFF795FD8AE772
:10434000FFF7E8F90823D7E7FFF7D8F90723D3E702
:104350000123D1E7002001A9FFF7F8FD7BE700204A
:1043600001A9FFF7ABFD76E70080005008B5FFF725
:1043700053FF082811D00938012811D84FF4001232
:10438000094B4FF6FF705A6603F5D8335B6A13F09A
:10439000010F18BF4FF4FA7008BD044B1888FBE7F3
:1043A0004FF6FF70F8E700BF00900050000C0020AF
:1043B00070B504468020FFF72FFF032800F08280AD
:1043C0004FF40022444B02215A6645F60E03434A3D
:1043D000C2F88030424B9962012103F58053996203
:1043E000936DD903FCD4D4E900131B0543EA0163A0
:1043F000E17B94F822500B43217B94F8236043EA3D
:104400000143617B43EA0133A17B43EA81131361DA
:104410009169D4E904031B0643EA806301F000417B
:104420000B43A17EE07E0B43217E43EA0143617E84
:1044300043EA01239361E369126A002B0CBF002158
:10444000082122F00D0242EA030242EA8002234BD5
:1044500042EA01021A6294F820204FEA421232D155
:10446000986A94F8211020F0330042EA01120243C6
:1044700042F001029A621B4A996D32EA0101FBD1B6
:10448000022217498A621A659A6D5200FCD4186993
:10449000A26820F4700040EA02504FF00042186118
:1044A0000F4B9A611DB9022203F580539A6216B927
:1044B00001220D4B9A6294F824301BB1074B0B4A32
:1044C000C3F8802070BD996A21F0330131430A435B
:1044D00042EA4502EEE700BF0090005000C00050E5
:1044E00000D000500300014000E00050F1A7FFFFA2
:1044F000014B93F9000070472C1A0020F0B5D0E969
:1045000001434FF480061A4A4178057856664FF405
:10451000D156022702F5B8325662164E4F297760FF
:104520004FF0010728BF4F2106F5805677601669C6
:10453000F603FCD441EA052151611B01417B43EAAA
:1045400004230B43017B43EA41039360C37B817BDC
:104550001B0143EA4113417C0B43017C43EA4103C5
:104560005360837C13B16FF4D1535362F0BD00BF2D
:104570000090005000100250014B1880704700BF9F
:10458000000C00204FF4001208B5184B5A660223A5
:10459000174A5360936813F48033FBD1012822D16A
:1045A000FFF796F8134B984215D003F5122303F545
:1045B000F863984213D0104B00EB8002400AB3FB23
:1045C000F0F0520A0A4BDA62012218635A620022A2
:1045D000074B5A6008BD45F67A10084AF2E745F6DF
:1045E0001A00074AEEE75362F1E700BF009000505F
:1045F0000040025000F0490264666666D8B80500C3
:10460000BBCF05000029CCBF01210021FFF7E6BC8C
:10461000B0F5207F10B50C4642D008D8B0F5007F29
:1046200033D003D888B1B0F5C07F0ED010BDB0F53F
:10463000607FFBD11F4B013CD3F8801021F030018B
:1046400041EA0414C3F88040F0E7FFF7EDFC00F006
:1046500035F84FF48031184A164B1167196F013C39
:1046600021F4704141EA04341C67FFF71BF804464B
:10467000FFF752FBC0F102012046FFF7C3FF00F035
:1046800023F8BDE81040FFF7B7BD0A4B013CD3F853
:10469000901021F0F85141EA0464C3F89040C5E756
:1046A000044B013C196F21F4806141EA84241C67AA
:1046B000BCE700BF008000500090005002214FF482
:1046C0002070FFF7A5BF000008B54FF4C070FFF7DA
:1046D000D5FCBDE80840044988428CBF0221012175
:1046E0004FF42070FFF794BF80F0FA02B0F5807F9E
:1046F00070B50C4600F0F88029D8382800F04B81BE
:1047000010D82438092816D8092814D8DFE810F062
:10471000DC00DC00DC00DC0013001300CD00130023
:1047200047003301522800F0CF8005D83D2851D0F2
:104730003E2800F0418170BD8028FCD18B1E052BE6
:1047400000F2B080DFE803F0AB99AE69AEA8B0F537
:10475000D06F00F0108132D8B0F5A06F00F01B814F
:1047600016D8B0F5806F00F0AF80B0F5906FE2D151
:10477000023C052C8CBF0021974B984A98BF195DCD
:10478000D2F8243123F007030B43C2F82431D2E7D7
:10479000B0F5B06F00F08980B0F5C06FCBD1083CA8
:1047A000032C8CBF00218E4B8C4A98BF195DD2F828
:1047B000403123F003030B43C2F84031BBE7B0F5AF
:1047C000006FD5D016D8B0F5E06F00F0F580B0F5E9
:1047D000F06FB0D1083C032C8CBF0021814B7F4A85
:1047E00098BF195DD2F8603123F003030B43C2F880
:1047F0006031A0E7B0F5086F9DD1CC1E052C8CBFB1
:104800000021794B754A98BF195DD2F8003123F029
:1048100003030B43C2F800318DE700250226012176
:10482000022000F0C7F9FFF7FFFBFFF747FF4FF447
:1048300080316E4B694A1967136F23F007033343C6
:104840001367FEF72FFF0646FFF766FAC0F1020175
:104850003046FFF7D7FE0121002000F0EBF9FFF70B
:1048600033FFFFF7C9FC002D7FF465AF032C7FF405
:1048700062AF01225E4B9A625DE74FF400225B4B10
:104880000E465A66012203F540539D6A03F5805394
:10489000C5F340059A62C2E700250426BFE700255C
:1048A0000126BCE700252E46B9E7022C03D0A4F16F
:1048B0000F0044424441494BD3F8801121F00301D9
:1048C0000C43C3F8804136E7023C032C8CBF002127
:1048D000484B424A98BF195DD2F8203123F00303B8
:1048E0000B43C2F8203126E7A1F10804082C3FF65B
:1048F00022AF01A353F824F01D4901001D49010016
:10490000374701001D4901004B49010037470100AD
:1049100037470100374701001D4901004FF480323D
:104920002E4B3549586E03F580535A660B6A43F097
:1049300001030B62C1035CBF304B5A664FF0E022AB
:10494000136923F004031361F5E64FF48032234B1F
:104950002949586E03F580535A660B6A23F0010308
:104960000B62C3035CBF254B5A664FF0E02213690C
:1049700043F00403E7E7083C062C8CBF0021204BE2
:10498000164A98BF195DD2F8003223F007030B4393
:10499000C2F80032CFE60F2C0CD0102C14BF00212F
:1049A00002210E4AD2F8203223F003030B43C2F84F
:1049B0002032C0E60121F4E7083C032C8CBF002123
:1049C000104B064A98BF195DD2F8403223F003031A
:1049D0000B43C2F84032AEE6943B03000080005027
:1049E000903B0300903B0300A13B0300009000506C
:1049F00000E000508C3B030000C0075000A00050B6
:104A00009A3B0300903B0300EFF3108072B67047AF
:104A100000B962B67047EFF31180302383F3118839
:104A2000704780F311887047054B420953F82230D4
:104A300000F01F0023FA00F0C04300F001007047AF
:104A400000E100E0194B10B51B6873B3184A5268B7
:104A5000012A2AD0174A8020C2F80031FFF7DCFB78
:104A600005281FD14FF4C070FFF78EFA01280446C5
:104A700004D102214FF4C070FFF7CAFD07220E4B8C
:104A80001A610122A3F580535A60094A1369DB07B2
:104A9000FCD5012C09D12146BDE810404FF4C0706F
:104AA000FFF7B6BD0122054B5A6010BD301A002039
:104AB00000C001500080005000E0015000D00150C3
:104AC00000224FF40031074B1A60074A516602F585
:104AD00098325268012A02BF044AD2F800211A60B3
:104AE000704700BF301A0020009000500080005036
:104AF000044A4178536F23F4407343EA0123536718
:104B0000704700BF004000507047704710B5044622
:104B100008B1FFF7D5FF0E4A136943F00403136190
:104B200002F07EF8FFF7F0FFFFF76EFF1EF0B4FC17
:104B3000FFF76EFFFFF7E9FF02F086F81CB1BDE852
:104B40001040FFF77FBFBDE81040FEF7ABBD00BFD0
:104B500000ED00E010B5044608B1FFF7B1FF0C4AC4
:104B6000136943F00403136102F05AF8FFF74CFF96
:104B70001EF092FCFFF74CFF02F066F81CB1BDE896
:104B80001040FFF75FBFBDE81040FEF78BBD00BFD0
:104B900000ED00E0FFF794BFFFF754BF034A01792F
:104BA000D36E23F030030B43D366704700400050B0
:104BB00070470000F8B504461C4BD3F88420D1069A
:104BC000FBD4D3F88430C3F381139C422CD0FEF77E
:104BD0004FFD012C064602D12146FFF713FDFFF7DA
:104BE00013FF4FF00072124B07465A662046FFF73C
:104BF000DFFF4FF480630D4D621E93402B676B6E99
:104C00009A0103D4D5F884309B060AD53846FFF7BD
:104C1000FFFE022C08D13046BDE8F8400021FFF726
:104C2000F1BCD5F88430EAE7F8BD00BF0040005081
:104C30000060005007B518B90191FEF719FD019900
:104C4000064B1B7843B1064B984205D8012003B0B0
:104C50005DF804EBFFF7AEBF0220F8E7341A00203E
:104C6000005A62020278034B012100201A70FFF7FC
:104C7000E1BF00BF341A00204FF0004210B50124FC
:104C80004AF6CD31154B5A66154A03F50B2354608D
:104C90005A6C1964224088B9996811F0010F1149C2
:104CA00003D08C60D86AC007FCD501234B6012B1D9
:104CB0000D4B0E4A1A6416F00CF910BDD96A09079B
:104CC000FCD42021074B59620121A3F58053996040
:104CD00005494B6A9B06FCD5E9E700BF00900050F0
:104CE0000050095000600950004009503254FFFF45
:104CF0004FF0004238B5194B194C5A66012203F5A2
:104D00000C235A604AF6CD33656C23644378154012
:104D100093401343134AD363A368827823F0740348
:104D200043EA0213C278002A14BF0422002213436C
:104D3000A3600279837943EA022323614279C3792C
:104D400043EA022363610078FFF796FF0DB1064B3B
:104D5000236416F0BEF8012038BD00BF009000505B
:104D600000400950004000503254FFFF70B5054626
:104D700014460E46FFF748FE296881EA040202EA5B
:104D800006044C402C60BDE87040FFF741BE0000B7
:104D9000072AF7B501F0030614461F464FF003013A
:104DA0002CD89500A94000FA05F21C480191FFF7A4
:104DB000DDFF01991A4806FA05F2FFF7D7FF194BF4
:104DC00019499DF82000002F08BF1946012303FA56
:104DD00004F40C60154B1649002808BF0B461C60F4
:104DE000144B9DF82400C3F820441031A3F6DC33A3
:104DF000002808BF0B461C6003B0F0BDA2F10805F7
:104E0000AD00A94000FA05F20B480191FFF7AEFF93
:104E100001990A4806FA05F2CFE700BF00C4035023
:104E200008C4035010E4035010D4035014D40350AA
:104E300014E4035000E0035004C403500CC40350B6
:104E4000F8B504460D461F4616464AB101238B406D
:104E50003021194A01FB0022FFB141F210015350E9
:104E600004EB4403072D4FF00F014FEA031317D84B
:104E7000A80006FA00F2814010481844FFF776FFB8
:104E800056B9012130230C4801FA05F503FB040053
:104E900077B141F21003C550F8BD42F21001DEE7D0
:104EA000A5F10800800006FA00F281400448E4E71A
:104EB00042F21003EFE700BF00C0035004C00350EC
:104EC0000CC00350F8B505460E4614465AB3826826
:104ED00003F0030722F440728260FFF795FDAA6891
:104EE00082EA072303F440735340AB60FFF790FD61
:104EF00036B9104B9D4217D12E20FFF7BFF806465A
:104F0000AB680D4BD85D60430DD06FEAC404044418
:104F1000A319B3FBF0F3AA68013B920702D5002B5B
:104F200008BF0123AB61F8BD044B9D42E8D12F209F
:104F3000E3E700BF0000015AA73B030000800650D2
:104F4000043021B100F5805001230360704700F563
:104F50000050F9E738B500230E4A036400F500530A
:104F6000DA634A7804460D4600F108037AB903F57E
:104F7000805302221A602046D5E901122B7BFFF7ED
:104F8000A1FF20462978BDE83840FFF7D9BF03F5D7
:104F90000053EEE7FFFF1F00884B2DE9F0439842D6
:104FA00022D0874B984240F00581864B402505264C
:104FB0004FF000084FF0030C996800F50054C26BE5
:104FC00012F4C06F16D0970510D5FD225A70092231
:104FD0001A700022026493F90110012900D15A705D
:104FE00093F90100BDE8F083774BDFE75605EED576
:104FF000FE22EBE71F78082F00F2D880DFE817F0D9
:1050000009001F0041004C006900740096009E00DA
:10501000CD004C880A88E5060AD5120A02F006027D
:1050200042F0F002012119704263C1600120D9E70A
:1050300002F0FE02A10748BF42F00102F2E71706A4
:1050400007D5802100F50052D1634FF608721A800F
:1050500062E05206EAD54A88E563D70604D5022203
:105060001A700B784363E1E7920765D507221A703F
:105070001B7901EBC3010B89012BD7D10823C36036
:10508000D4E71706DDD45206D0D54A88E5639707E2
:1050900052D583F800C092E74C880A88E50643BFE2
:1050A000120A02F0060242F0F00202F0FE02640769
:1050B00009D51C7942F0010201EBC40109890129DB
:1050C00004BF0821C160042119700123C360426339
:1050D000ACE71706B5D45706A8D54A88E56352074A
:1050E0002AD507221A70A1E71A795F8801EBC20E50
:1050F000BEF80890B94511D80132D2B21A714F8862
:10510000A3F8028017F0040FC3D1FF0702D4012ACD
:105110007FF655AF08221A700223B0E7DEF80420AC
:10512000791C5980D25D42630622DBE7170688D4DA
:1051300057067FF57BAFE5631E7040E794067FF569
:1051400075AF456A214C46691A793440B4F5003F81
:1051500004BF466A4FF4005601EBC20100F500544B
:105160000A8908BFE6632026E6635C88A24281BF05
:105170004968661C5E800D5559888A42CAD9042444
:10518000012AC46004D9013A914201D10822C260C7
:105190001A78092A3FF41DAF48E7D2057FF546AFDC
:1051A0004FF4807100F50052D16310E74FF60932D9
:1051B0001A800EE76FF0030014E700BF0000015AE9
:1051C00000800650441A0020381A002020000200F7
:1051D0001C4B10B4984207D01B4B98422ED06FF056
:1051E00003005DF8044B7047184B0269D20744BFB7
:1051F0002022C2604A88940702D50C89002CEED088
:10520000520702D50A8A002AE9D04FF480721A6048
:10521000002299601A71C023C3604369DB050FD473
:10522000202200F50053DA63094A5DF8044BDA6383
:10523000036C43F4FC630364FFF7AEBE054BD4E795
:10524000436AEAE70000015A00800650381A00203D
:10525000FFFF1F00441A00204FF40032054B9A66EE
:1052600041F6713203F51C33DA63012203F5005372
:10527000DA6070470090005041F671320121064B10
:10528000DA6303F50052D1600022DA634FF4003292
:10529000A3F518339A667047000003504FF0B043EF
:1052A0005A6812B19A6A002AFAD17047CB784A78C4
:1052B00010B55B010C7843EA82030A79234343EA81
:1052C00002130C22424302F1B0421363012C02BFCD
:1052D0008A78024B43F8202010BD00BFE8800350BD
:1052E00008B54FF0B0435A6802B960B15B680BB1C2
:1052F000FFF7D4FF4FF0B04130B10120074B5860A9
:10530000FFF7CCFFC86008BDFFF7C8FF0223CB60E2
:10531000FFF7C4FF0122024B5A60F4E70010005867
:10532000002000584FF0B0435B6870B50BB1FFF739
:10533000B5FF0121104B4578596083780679002B21
:10534000C37814BF02240024002B14BF04220022BF
:105350004379DB0043EA06132B43234313434FF007
:10536000B0429360054B59600378002B14BF0B4685
:105370000223D36070BD00BF002000580010005809
:105380004FF48032064B5A6603F5E6235B69C3F39C
:105390008512827003F03F021B0B4270037070474E
:1053A00000900050036BDA0702D503695B06F9D45D
:1053B000704710B5FFF7F6FF012200F500531A639E
:1053C0000B79044648881B0243EA8043487A03432A
:1053D0004878002814BF402000200343887A002822
:1053E00014BF802000200343C87A002814BF202067
:1053F00000200343087B002814BF10200020034333
:10540000487B002814BF0820002003438879002827
:1054100014BF4FF4803000200343636004F58053D1
:105420001A630A780AB90223E36000236362C87929
:105430000B7A497943EA8003002914BF1021002127
:105440000B43A3600AB10123E36010BD70B50546AC
:1054500016461C4621B94FF42070FEF70FFE014698
:10546000402C1BD003D8DCB1202C1BD070BD602C8D
:10547000FCD1042303FB06F2560806EB4113B3FBF1
:10548000F2F3094A203B02EAC303AA6822F0600251
:10549000AA60AA681443AC60EB61E7E70623E9E77A
:1054A0001023E7E70823E5E7F8FF7F0038B5054656
:1054B000144621B94FF42070FEF7E0FD0146013992
:1054C0006400B1FBF4F10902E96138BD012200F585
:1054D00080535A60CB43934003F00A034361416118
:1054E00011B900F50050426070470000012200F53C
:1054F000805310B55A6040F6AA6341F20502436139
:1055000000230E498360C365C26000F50052036149
:10551000C361C36491640A498365884202D0094C1F
:10552000A04207D18842036502D0064B984201D1C0
:10553000002343650123536010BD00BFFFFF01003E
:1055400000C005500000065070B50D46FFF7CEFFB5
:10555000012300F580567360AB7C04461BB1836861
:1055600043F080438360EB7C5BB1354A2B7D9442F2
:1055700045D1A2F51032C2F88C31E36D43F08003BF
:10558000E3652A8A6B7B20461343EA891343E36071
:105590002B7BD5E90112FFF759FF6B7D1BB1A36887
:1055A00043F48033A360AB7D1BB1A36843F4004395
:1055B000A360EB7D2A7E1B07120502F4E00203F0D4
:1055C000E0431343A365697E1D4A8B1E012B1D4BCF
:1055D0001FD894421BD002F5804294420CBF012296
:1055E0004FF0FF3203EB4213022041F21C62032909
:1055F000985020D10423F3652B78636170BD124A63
:10560000944204BFA2F52032C2F89C31B5E70022D3
:10561000E8E794420DD00C4A94420CBF01224FF0AF
:10562000FF3203EB4213022042F21C620129985020
:10563000DFE70022F5E7042204F50053DA65DBE733
:1056400000C0055000C003500000065038B50D469C
:10565000FFF74CFF0122A97B00F580535A602A8A8C
:105660008368002914BF4FF48061002142F00102D9
:1056700013432A7D0B43002A14BF4FF0005200222F
:1056800083608368044613438360AB7C5BB11D4A2F
:10569000EB7C90422DD1A2F51032C2F88C31E36D33
:1056A00043F08003E3652B7B2046D5E9011243F4E8
:1056B0008053E360FFF7FAFE6B7B0BB1102363614D
:1056C0006B7D1BB1A36843F48033A360AB7D1BB13A
:1056D000A36843F40043A360EB7D2A7E1B071205F9
:1056E00003F0E04302F4E0021343A3652B78636107
:1056F00038BD054A904204BFA2F52032C2F89C3161
:10570000CDE700BF00C005500000065083691B06AE
:10571000FCD5406AC0B2704783695A06FCD5C163A4
:1057200083699B06FCD5406AC0B2704783695B06FB
:10573000FCD5C1637047000038B50446054D15F02F
:10574000EEFB0FCC0FC594E8030085E803000020B2
:1057500038BD00BF501A002047F6FF739A42F0B5DB
:1057600063D0022963D8334BCF0003EBC10013F899
:1057700031108478012913D10025C3781B1B9D4269
:1057800002D3E018C0B2F0BD591B4668A3EB51012B
:1057900036F911609642D4BF0D4601F1FF33EEE7B2
:1057A00040680028EFD0B0F90010914204DBB0F956
:1057B00002109142B8BF114682883B44FF2A19BFAC
:1057C000C8222826B0F90620B0F90860A2EB010231
:1057D0000CBF0125002592FBF6F25F782A447B1E60
:1057E000934228BF13464FF47A7E00EBC305AE68A0
:1057F000EA88AC4611FB02621E4622EAE2720133DD
:1058000002F5FA729F42B2FBFEF204D9BCF80CC05A
:1058100008359445EBD200EBC6008088904228BF43
:105820001046A04238BF2046ACE7FF20ABE700207F
:10583000A9E700BF501A00200229F0B553D82B4821
:1058400000EBC10410F83110636801290FD1E07832
:10585000A478904294BFC4EB0001C4EB0201001B8A
:10586000CAB28242C8BF002233F91200F0BD002B39
:1058700039D0A178914202D3B3F90200F6E7E1787A
:10588000B3F900009142F1D999886478A1F1FF063B
:10589000013C714203F10405E4B2714103F10C07CC
:1058A0001FFA82FCCEB2B44216D805EBC1014FF408
:1058B0007A756A43B1F902404968521A04EBD4710F
:1058C00002EB610292FBF4F29042CFDBB3F90200EB
:1058D0009042CBDC10B2C9E737F831E04E1CE64508
:1058E000E3D33146DEE70248C0E700BF501A00208C
:1058F0000080FFFF08B50448FFF71EFFBDE8084021
:10590000012015F027BB00BFAC3B030000487047E7
:10591000020C00207FB50222084B0949CDE9012382
:105920004FF00073CDE90313052301A94FF0FF30B9
:10593000059315F077FB07B05DF804FB006A1800CB
:105940000002040007B56B46054A1068516803C39E
:105950006846FFF7CDF9002003B05DF804FB00BFF7
:10596000303C030013B50024064A6846536F43F0E9
:105970000103536700948DF80440FFF70FF92046A8
:1059800002B010BD0040005030B58BB06C46154DD4
:105990000FCD0FC40FCD0FC495E8030084E80300BA
:1059A000114BD3F84C21120314D4D3F85041E4B274
:1059B0008DF81940FEF79CFD204480F308008DF817
:1059C00018000A48FDF78AFE6846FEF7F1FC002041
:1059D0000BB030BD064B1C884FF6FF739C4208BFCE
:1059E0007824E5E7383C03000080E00F00F049022E
:1059F0000001E00F08B50120FEF7C4FD002008BD3E
:105A000030B5094D87B001AC0FCD0FC42B6801A88C
:105A1000236025238DF80530FEF770FD6420FEF726
:105A2000ABFD002007B030BD603C03006FF0040206
:105A3000502110B50A480B4C12F0800FD3B21BBF97
:105A400003F00F03043BA3181B1802F101020CBF63
:105A500083F800131976402AEED1002010BD00BF54
:105A600000ED00E000E100E000F078B838B501F0AA
:105A70005BFA0446E0B901F057FB4FF41673434359
:105A80000C4803F5742303F23F23B3FBF0F30A4AF7
:105A90000A4913600A220D680948013A12F0FF0210
:105AA00040F8043BF9D103EBC3022B4413440B60D1
:105AB000204638BD40420F00A41A0020701A002072
:105AC000741A0020012208B5034B1A7001F020FB64
:105AD000024B186008BD00BF6C1A0020A01A0020FD
:105AE000F8B5144C237823B301F012FB124B134D7D
:105AF0001B68134EC01A012838BF0120114B124FEA
:105B000018602B7856F8232046F82300111A3A68BB
:105B10000E48521A0A213A600932B2FBF1F20133FF
:105B2000DBB20260B3FBF1F201FB12332B700023F6
:105B30002370F8BD6C1A0020A01A00209C1A0020C7
:105B4000741A0020681A0020701A0020A41A00207D
:105B5000014B1868704700BFA41A002020234FF49F
:105B600000220A4981F82C33094B5A66094A03F589
:105B7000405303F50050426702674FF48050C1F86C
:105B80008401486003445A67704700BF00E100E0A9
:105B900000900050010000A0044B9A6DD20702D47F
:105BA0000028FAD170470120704700BF00C00050A4
:105BB0000C4B10B51C6FE20707D5012203F500530B
:105BC0001A67FFF78DFF00F065FF14F000521CBF4D
:105BD000054B1A67002CBEBF4FF00042024B1A67FC
:105BE00010BD00BF00C0005000E00050FFF7E0BF54
:105BF00010B50446FEF708FF024B1C60FEF708FFD5
:105C0000002010BDA81A002010B5FEF7FDFE034BC2
:105C10001C68FEF7FDFE204610BD00BFA81A00203C
:105C200007B530B9CDE90012FFF7EEFFDDE900124C
:105C300030B1436823B1006803B05DF804EB184746
:105C4000232003B05DF804FB30B51C4685B058B97D
:105C5000CDE90012FFF7D8FFDDE9001204B903AC6B
:105C600020B9232005B030BD03B903AC8568002DF1
:105C7000F7D023460068A847F4E70EB477B507AB22
:105C800053F8046B05460193B0B9FFF7BDFF044616
:105C90000546304601991CF0E3FBAC42064602D0B3
:105CA0002046FFF7A5FF002ED4BF3720002003B009
:105CB000BDE8704003B07047FFF7A6FF8542044679
:105CC000E7D02846FFF794FFE3E700207047FEE7A0
:105CD0004FF4005300204B607047012070470020B4
:105CE000704707B5002001AB0190FFF7ADFF0198A9
:105CF000002808BF4FF0FF3003B05DF804FB10B57B
:105D000014460020FFF78CFF204610BD034B0222F3
:105D100018680023806819461CF0DEBA0C0D0020BC
:105D200090F82A3001223BB190F82E30022B03D19B
:105D300080F82E20184670471346FBE780F82410A1
:105D4000704790F82400704790F82B0070470000CF
:105D5000002808DB0123420900F01F0003FA00F0CD
:105D6000014B43F82200704700E100E0002809DB06
:105D70000122430900F01F0002FA00F0024A6033DA
:105D800042F82300704700BF00E100E0F8B5044688
:105D90000D4690F82B3081B173B990F82C60FEF766
:105DA00033FE05460121304600F0A2FC2846FEF7EE
:105DB0002FFE012384F82B30F8BD002BFCD090F887
:105DC0002C70FEF721FE06462946384600F090FC6E
:105DD0003046FEF71DFE84F82B50EDE770B5044603
:105DE0000568FFF711FF844202D10020FFF700FF92
:105DF00095F92800FFF7BAFF95F92830002B0DDB45
:105E000001215A0903F01F0301FA03F31449203258
:105E100041F82230BFF34F8FBFF36F8F95F9290000
:105E2000FFF7A4FF95F92930002B0DDB01215A095A
:105E300003F01F0301FA03F30949203241F822302D
:105E4000BFF34F8FBFF36F8F00232846C4E90033A1
:105E5000C4E90433A360EB68BDE87040184700BF95
:105E600000E100E02DE9F047044616460D4690F8A3
:105E70002480FEF7D0FD94F82A2003469AB1FEF75D
:105E8000D0FD94F82D90FEF7BFFD0746012148464E
:105E900000F02EFC3846FEF7BBFDFEF7BCFD0022ED
:105EA000034684F82A201846FEF7BBFD2E44B8F1BD
:105EB000000F23D1AE4205D1204663680121BDE821
:105EC000F047184794F82630002BF3D0204623687B
:105ED00015F8011B98470028ECD0BDE8F08794F82E
:105EE00026305BB12B780A2B03D10D212046236885
:105EF00098472046236815F8011B9847AE42EED11B
:105F0000DAE72DE9F7434FF00009044690461E46B4
:105F1000C3F800904F1E3368434505D2FEF77BFD62
:105F2000A269C2B9FEF77DFD94F827305BB9112351
:105F3000012220460DF107018DF80730FFF792FF8F
:105F4000012384F827303368002B0CBF1B2000206E
:105F500003B0BDE8F083E16922698A5C07F8012F8C
:105F60002569226A0135954208BF4D46A26925611F
:105F7000013AA261FEF755FDA368204698473368B1
:105F800001333360C7E708B5FFF76CFF002008BD99
:105F9000F8B51F46536806460C461546002B5BD0E5
:105FA0009368002B5AD03022002120461CF06DF857
:105FB0006B682B4AE361AB68204623622B7B84F835
:105FC0002430AB7B276084F8253040F20113E38452
:105FD000069B00276360079BA360089BE3602B7808
:105FE00084F828306B7884F829301E4B3460736055
:105FF0001D4BB3601D4B33611D4B73611D4BF36033
:106000001D4B3362012384F82E30B2611B4AF261CA
:106010009DF8282084F82D209DF8242084F82A302B
:1060200084F82C20697B84F82B70FFF7AFFE95F97C
:106030000100FFF79BFE95F90100FFF789FE95F936
:106040000000FFF793FE95F90000FFF781FE304650
:10605000FFF7CEFD3846F8BD2220FCE72120FAE705
:106060008D5D0100875F0100035F01003D5D010060
:10607000435D0100DD5D0100215D0100495D01001E
:1060800010B50446FEF7C7FCA269236A9A4203D200
:10609000FEF7C7FC012010BDFEF7C3FC0020FAE7A5
:1060A00037B504460D4600E000BFFEF7B4FC94F897
:1060B000253002466BB1132D07D1002384F826301A
:1060C00003B0BDE83040FEF7ACBC112D01D1012377
:1060D000F4E76369E1691046CD54A1696369013150
:1060E000A161216A01338B42636104BF00236361B4
:1060F000FEF797FC042384F82E3094F825307BB10A
:10610000A269236A9A420BD11323012220460DF182
:1061100007018DF80730FFF7A5FE002384F827302C
:1061200003B030BD90F82A3073B5044603F0FF0188
:10613000A3B9436801919847012384F82A3094F861
:106140002D60FEF761FC05460199304600F0D0FA5B
:106150002846FEF75DFC022384F82E3002B070BDA5
:10616000026BD36C43F00403D364704710B504464C
:10617000026B93695906FCD5002394F839101A462E
:1061800094F83800FEF75CFE002394F83B101A46A2
:1061900094F83A00FEF754FE94F84030DA0707D539
:1061A000002394F83D101A4694F83C00FEF748FE90
:1061B00094F840309B0707D5002394F83F101A4607
:1061C00094F83E00FEF73CFE206B0021FFF77EF9BD
:1061D000606B0021FDF730FF002010BD08B5006B9B
:1061E000FFF7A4FA002008BD036BDA6C19B142F086
:1061F0000102DA64704722F00102DA64012203F539
:1062000000539A64704700002DE9F04101271C46B5
:10621000594B86B00293594B0C9D0193584B9046B5
:1062200000930A46CDE903772946564BFFF7B0FEA7
:10623000064600287AD1236839462B6363683A20E2
:106240006B63637A85F83930237A85F83830E37ADE
:1062500085F83B30A37A85F83A30637B85F83D308A
:10626000237B85F83C30E37B85F83F30A37B85F8C2
:106270003E30FDF7E1FE3B460422617A207AFEF7CC
:10628000DFFD3B460222E17AA07AFEF7D9FD3946CE
:106290006068FDF7D1FE88F8006041462068FFF78E
:1062A00053F91422237C5B0103F1A04303F57033FF
:1062B000C3F81C26617A227A42EA0142C3F83426E6
:1062C000E17AA27A42EA0142C3F82C2685F84060BE
:1062D00098F81930032B4CD8DFE803F01A022C464B
:1062E0000123002785F8403000230222617B207BB8
:1062F000FEF7A6FD637B227B217C42EA0342224B10
:1063000049015A500422236803F58053DA65A7B97E
:10631000237A052185F83830637A85F8393020688A
:10632000C36C43F00403C364FFF7D0F8304606B0F3
:10633000BDE8F081022385F8403000230422E17B90
:10634000A07BFEF77DFD022741F21C61227C0F4BF2
:1063500003EB42104750E07BA17BB13241EA0041A0
:1063600003EB42139960D3E70323012785F84030FC
:10637000BAE72326DAE700BF6D6101006161010021
:10638000E9610100DD61010024D6035000C0035023
:10639000036B10B59B690446190609D5FFF770FE1B
:1063A000B0B1206BFFF7B2F901462046FFF778FE47
:1063B000236B9A6CD20711D5012103F50052916429
:1063C0009B699B060AD52046BDE81040FFF7AABE90
:1063D000226BD36C23F00403D364E9E710BD000003
:1063E000BFF35F8F074B5A6A22F480325A62D3F8A8
:1063F000942022F00102C3F89420BFF34F8FBFF323
:106400006F8F704700ED00E070B52648264CFFF70F
:10641000E7FF844208BF4FF08043244A18BF20F0B2
:106420001F03D2F8C01018BF203B21F0FF0141F03C
:10643000A001B3F1005FC2F8C0100CD31C4D1D4E7B
:10644000296843F00103C2F898100131C2F89C603A
:10645000C2F8A0302960844210D01548164B02685B
:10646000124923F01F0343F00303C1F89820C1F839
:106470009C30124B0132C1F8A0300260BFF35F8F35
:1064800005220A4BC3F894205A6A42F480325A62B9
:10649000BFF34F8FBFF36F8FBFF34F8FBFF36F8F7C
:1064A00070BD00BF700D0020480F002000ED00E01F
:1064B000AC1A002003000020670F0020E1FFFF3F1F
:1064C00010B51446FFF78CFF1F2C24D91C4A1D4C15
:1064D000D2F8C03023F47F4343F48073C2F8C03055
:1064E000C2061CBF20F01F002030CB06144A2368D0
:1064F00018BF21F01F0120F01F0021F01F01C2F87A
:10650000983040F0030041F003010133C2F89C00D1
:10651000C2F8A0102360BFF35F8F0522084BC3F8B9
:1065200094205A6A42F480325A62BFF34F8FBFF30D
:106530006F8FBFF34F8FBFF36F8F002010BD00BF71
:1065400000ED00E0AC1A0020BFF34F8F0549064B69
:10655000CA6802F4E0621343CB60BFF34F8F00BF01
:10656000FDE700BF00ED00E00400FA0508B5FFF705
:10657000EBFF08BD034B1B78002B14BF012002204A
:10658000704700BFE01A00200329F8B598BF124BEE
:1065900005460E468CBF00245C5C032805D8DFE866
:1065A00000F002080B0E44F002040C4B1F684FB9B8
:1065B000F8BD44F00804F8E744F02004F5E744F09F
:1065C0008004F2E77B681A68144203D031462846FB
:1065D0005B6898473F68EAE7743C0300DC1A0020D8
:1065E00038B5104D2B78ABB10F4C23781BB100F0B0
:1065F00057FB00232370002000F074FB0B4C50B1BC
:1066000000F07AFB0023012120782B70FFF7BCFFFC
:106610000123237038BD0122054B1A702278054BE7
:106620001A70F7E7DA1A0020D51A0020CC1A0020D9
:10663000D91A0020EC1A002010B5FEF7E5F9064B38
:1066400004461B781BB1BDE81040FEF7E1B9FFF727
:10665000C7FF2046F7E700BFD41A0020002814BF68
:106660000121FF21074A13780B44137008D0064B11
:106670001B78012B04D9054B1B780BB9FFF7B0BF72
:10668000704700BFE01A0020CC1A0020D91A002061
:1066900070B5FEF7B9F9114E054633788BB900F0A5
:1066A00043FC044620B12846FEF7B2F9204670BDEF
:1066B0000B48FDF763F80B4B1C6000F035FD0A4BEF
:1066C000186000F02FFA00F04BFB084B0024186014
:1066D000012328463370FEF79BF9E7E7D61A00201E
:1066E000DC1A0020F01A0020E81A0020D01A00203E
:1066F00000292DE9F34114BF0121FF21254A00F1B2
:10670000FF30135C0B4413543AD0234E3278012AE5
:1067100036D9FFF72FFF0128044634D81F4FFEF764
:1067200073F93B781BB31E4D2B781BB901222A70DD
:106730001C4A1370DFF8708098F8003033B1019074
:1067400000F0AEFA0023019888F80030FEF760F9F7
:10675000012000F0C7FAFEF757F92B782BB1019012
:1067600000F0CAFA002301982B7000233B70FEF75B
:106770004FF93078A04203D02146FFF705FF34706F
:1067800002B0BDE8F081032AF3D10228F1D100F074
:1067900001FBEEE7E01A0020CC1A0020DA1A0020F4
:1067A000D41A0020D91A0020D51A002010B50446AA
:1067B000FEF72AF9002C14BF0121FF21064A1378A5
:1067C0000B44DBB21370B3FA83F3BDE81040034A05
:1067D0005B091370FEF71CB9E31A0020E21A0020CF
:1067E00068B5FEF711F9094B06461B78012B04D852
:1067F000FEF70EF90025284668BD054B1D6800F020
:10680000B3FA05443046FEF703F9F4E7CC1A00204A
:10681000F01A002007B5FEF7F7F80190FFF7E0FE49
:10682000019803B05DF804EBFEF7F2B838B54160AB
:106830000446FEF7E9F8054621460448FCF7A1FFA7
:106840002846BDE83840FEF7E3B800BFDC1A002058
:10685000054B1B685843054B00F5742000F23F20A0
:10686000B0FBF3F0704700BFE81A002040420F0071
:106870002DE9FF47FEF7C8F8044600E000BFFCF72B
:1068800095FC002800F09C806D4E6E4F337823B14C
:106890000020FFF7E3FE00233370FFF76BFE054691
:1068A000002800F09580851EEDB2012D40F2988001
:1068B000FFF760FE0128804604D9634B1B780BB9B3
:1068C00000F0ACF9614DDFF8A4912878DFF8A0A1C1
:1068D00040450AD0002389F800309AF8003013B9F7
:1068E0004146FFF751FE85F8008099F800303BB132
:1068F0002B78022B04D1002389F8003015F04EF8D4
:10690000B8F1010F0FD9DFF8408198F8003053B982
:106910004F4B1B7823B900F0BDF901224D4B1A7083
:10692000012388F80030287800F004FA9AF8003043
:1069300013B1494B1B782B7000E000BF2046FEF7D7
:1069400067F8FEF761F8454B04461A7852B1002209
:106950001A70414B28781B78984203D10121297085
:10696000FFF712FE384600F019FBFCF72AFC8046C0
:1069700000288BD1344F89F800003B789BB1DFF8B9
:10698000D4908AF8000099F800301BB100F088F923
:1069900089F80080002000F0A5F9002846D000F01A
:1069A000ABF900233B70337823B10020FFF756FE8C
:1069B0000023337000212878FFF7E6FD00232B70B9
:1069C00000E000BF204604B0BDE8F047FEF720B865
:1069D0003378002B3FF46CAFFFF740FE357067E76C
:1069E000002003A900F05CFB054600287FF460AF9F
:1069F0001B4B039A1B689A4205D80120FFF72EFE15
:106A00000123337054E7174BD3F8008000F0ACF942
:106A1000039940448842F0D20223091ACDE9005379
:106A200038462B46104A00F0E1FA41E7012000F019
:106A300081F92046FDF7ECFFFDF7E6FF0446A9E7E4
:106A4000E41A0020B01A0020DA1A0020CC1A002024
:106A5000E31A0020D51A0020EC1A0020D81A0020D2
:106A6000D01A0020F01A002039660100E21A002036
:106A7000D91A002010B5FDF7C7FF0022044B1C787F
:106A80001A70FDF7C5FF00F01FFC2043C0B210BD17
:106A9000D71A002010B5094B1B786BB1084C23782E
:106AA00053B100F029F90023064A23701370012323
:106AB000054A1370054A137010BD00BFCC1A0020A0
:106AC000D91A0020DA1A0020D71A0020D81A00207C
:106AD0007047000073B5114E04463378834212D0DC
:106AE00000238DF8043080B102238DF8053001A811
:106AF000FDF7FEFF0A4D402054B1FFF7A9FE2B68B9
:106B0000181A2860347002B070BD8DF80500EEE7E9
:106B1000FFF79EFE2B681844F3E700BF080C002027
:106B2000FC1A002073B5002401A88DF80440FEF77C
:106B300099F820464FF40024FFF7CCFF3149324B3F
:106B40000A6F02F007021A60D1F82031D1F824014F
:106B500001F580514C664FF400344C6601F59831D4
:106B60008969032A00F0070001F0020141D003F017
:106B700003039C1E63426341022808BF43F00103E4
:106B80002248234D037061B31E4A3BB9D2F800314D
:106B900003F00303591E4B424B410370D2F80031FE
:106BA00003F00303022B26D0032B27D0012B18D18F
:106BB000FCF78EFDA8B1174B411EDC68002302468E
:106BC00008461946C4F30B04134E013404EB840445
:106BD000E4FB06011BF042F8FFF73AFE2B6818446D
:106BE00028606420FFF734FE2B681844286002B048
:106BF00070BD0123C0E7FCF78DFDDBE7FCF77EFDF0
:106C0000D8E700BF00800050F41A0020FA1A0020D4
:106C1000FC1A002000C0015040420F00FDF7BABF2F
:106C2000074B1A7852B100221A70064A136F23F0EC
:106C3000070343F001031367FCF734BD704700BF3F
:106C4000F81A0020008000500E4B10B51B7883B15D
:106C5000022000F0EDFB60B100F054FA48B10A4B9D
:106C60009A6DD20306D5DB6D9B0703D50122074B36
:106C70009A6210BD0124064B1C70FEF723FF034BE4
:106C80009C62F6E7FA1A002000C0005000D00050C5
:106C9000F91A00200122014B1A707047F81A0020DF
:106CA00038B50C4B1B786BB10B4C23787BB90B4B75
:106CB0000B4D9A6D12F4803F05D0DB6D9B0702D51A
:106CC0000123AB6238BDFEF7FDFE0123AB6200235A
:106CD0002370F7E7FA1A0020F91A002000C00050CC
:106CE00000D00050034B1B780BB1FEF755BF0120BD
:106CF000704700BFFA1A002008B5FDF74DFF094A9A
:106D00000949136F096823F007030B431367074B07
:106D10001B7813B10122064B9A62BDE80840FCF7CC
:106D2000C1BC00BF00800050F41A0020FA1A0020F5
:106D300000E0005002280AD003280BD001280CD113
:106D4000064A136923F00403136130BF7047002023
:106D5000FDF7DCBE0020FDF7FDBE704700ED00E052
:106D60004FF4C870FFF774BD08B5054B187818B11B
:106D7000FEF7EEFE00EBD000024B1B68184408BD86
:106D8000FA1A0020FC1A00200122014B1A707047E9
:106D9000FA1A00207047000010B500F0E3FA0A4C20
:106DA0000A4B19682368C31A01B10BB9206010BDE2
:106DB0004A699A423ABF9B1A0022D21A4A6128BFF6
:106DC00000238968F0E700BF041B0020181B002087
:106DD000C38870B504460D463BB9FFF701FD8542F7
:106DE000064602D2FFF716FD35460F4965610B686E
:106DF000ABB90C60A36011E0AD1A9A6818466561E2
:106E00002AB113465A69AA42F6D950B11A46134616
:106E10008460A36013B15969491B596170BD00209A
:106E2000F0E70C60F5E700BF181B002038B5134DE4
:106E30002B685B6993B1124A022014681C4400F06D
:106E4000CBFA204600F096FA00230E492A680B7010
:106E5000D088800709D501230B7038BD022000F0CF
:106E6000BBFA022000F0DCFAEEE79268002AF4D0C8
:106E700050690344012BEBD9EFE700BF181B00203A
:106E8000041B00200C1B002070B516469DF8142032
:106E9000C0E903360271049ABDF81830026000227E
:106EA000C380826004460D4600F05CFA3044A06165
:106EB0003DB9E368656113B120462168984796B1F2
:106EC0003546FDF7A1FD0646FFF766FF2946204639
:106ED000FFF77EFF054B1B68A34201D1FFF7A6FF1A
:106EE0003046FDF795FD002070BD00BF181B002047
:106EF00000220C490B687BB183420AD183687AB1C6
:106F0000936083681BB15A6941690A445A61002041
:106F100070471A469B68EEE70028EFD002207047C2
:106F20000B60EEE7181B002070B5FDF774FD144EE2
:106F300005463478FCB9134B1C60134B1C60134B93
:106F40001C8000F0CDF9012000F046FA00F09AFA1A
:106F50000F4B0246186020B92846FDF762FD23203A
:106F600070BD234640F2E7310A481AF077FE0A4B1B
:106F70001860012333702846FDF753FD0020EFE72A
:106F8000001B0020181B0020041B00200E1B0020EB
:106F9000141B002018FCFFFF081B00202DE9F04106
:106FA0000546F8B1FDF730FD0F4F0646FFF7F4FE3A
:106FB0002846D7F80080FFF79BFF044628B13046EB
:106FC000FDF726FD2046BDE8F081A8453B6803D1CA
:106FD00023B1FFF72BFFF2E7002BF0D1022000F0E6
:106FE00007FAECE72224EDE7181B002070B586B005
:106FF00015461E460446059180B1FFF7CFFFBDF848
:107000002C30002202939DF828302046CDE9006301
:1070100005992B46FFF738FF06B070BD2220FBE72D
:1070200038B50C46054698B191B100230B70FDF7B9
:10703000F2FC0121074B1B680BB122781AB1FDF756
:10704000F0FC002038BDAB4214BF9B682170F3E711
:107050002220F7E7181B0020F0B51F46002387B059
:107060000D46164604468DF81730A0B10DF11701F4
:10707000FFF7D6FF9DF817207AB9BDF834302946BE
:1070800002939DF830302046CDE900733346FFF778
:10709000FBFE07B0F0BD2220FBE70320F9E700006C
:1070A0002DE9F04107468846FDF7B5FC0026054668
:1070B000124B1C6824B92846FDF7B3FC1B2016E0D0
:1070C00063691E44E388BB4215D100F04BF90C4CB8
:1070D0002368C01AB0420CD200F044F9226832444E
:1070E000121A2846C8F80020FDF79BFC0020BDE8D6
:1070F000F0810022F5E7A468DCE700BF181B002040
:10710000041B0020014B1878704700BF0C1B0020A7
:1071100038B5FDF780FC054600F024F90446284602
:10712000FDF77FFC204638BD014B1868704700BF53
:10713000141B00200C4B70B51B680D46834211D305
:1071400040F2E73100248C462146084B4FF47A7216
:107150001E680023E0FB06C160461AF07FFD286030
:10716000204670BD2120FCE7081B0020141B0020D6
:107170000F4B10B51A689AB14FF47A71531E13422F
:10718000A0FB01010ED1B2FA82F2C2F11F04531C1E
:10719000D243E04001FA03F3184321FA02F202431A
:1071A000104610BD00231AF059FD0246F8E700BF53
:1071B000141B0020C2072DE9F34704460BD53F4AB4
:1071C000138801339BB21380FFF7E6FD3C4B1B682D
:1071D0000BB1FFF72BFEA3076DD5FDF71CFC0026B6
:1071E00005463746FFF7D8FDB146DFF8D480D8F81A
:1071F00000400CB163698BB10022324B012F1A7031
:1072000002D1022E08BF1F70002C44D0FFF70EFEE3
:10721000284602B0BDE8F047FDF703BC23461A79C3
:107220002179914288BF1C469B6813B15A69002A94
:10723000F5D02846FDF7F5FB256985B300F092F8F7
:10724000A269861AF317B54279EB030328DA23699A
:107250001344A3610123226982B17BB9A91B019167
:10726000FDF7D9FB824601992046FFF7B1FDA369DE
:10727000226950461344A361FDF7D3FBE368E68817
:10728000013713B1204621689847FDF7C4FB054636
:10729000FFF782FDABE7022000F0AAF8B8E72E4620
:1072A000FDF7B9FB82462046FFF722FE5046FDF768
:1072B000B8FB0023CFE702B0BDE8F0870E1B00202B
:1072C000181B0020101B002010B5FDF7A4FB034B7A
:1072D0001C78FDF7A6FB204610BD00BF101B002048
:1072E0001FB500241C4B012118689A880290D3F81E
:1072F00006009B7A00903E20ADF80C208DF80430FB
:10730000FCF79AFE02A88DF808408DF80C40FEF7B5
:1073100009F8694601208DF80040FDF7C7FF4FF0DE
:10732000B04240F2FF31936923F47F7323F00303EB
:1073300093610A4B5961936A13F00803FBD11362FE
:107340000120FDF7CDFF4FF48052054BC3F880219B
:107350001A6004B010BD00BF783C03000020005844
:1073600000E100E04FF0B0439A6A1207FCD4186ABB
:107370007047000010B50446FDF746FB4FF0B042E1
:10738000936A1907FCD4136A116C5269520604D42B
:10739000CA1A032A01D899420ED1E21A022A98BFCA
:1073A000DC1CB4F1FF3F38BF013C4FF0B0431C641C
:1073B0009A6942F040029A61FDF72AFB054A137868
:1073C0003BB14FF0B041CB6B43F00203CB630023E2
:1073D000137010BD090C002082074FF0B04200F07E
:1073E0000103916948BF43F040030B439361704729
:1073F000820700F001030AD50121084A43F0400347
:1074000011704FF0B041CA6B22F00302CA634FF013
:10741000B0418A6922EA03038B617047090C00209E
:10742000830742BF4022014B5A6170470010005849
:107430004FF0B04301285B6904D0022805D1C3F3A3
:107440008010704703F00100704700207047000073
:1074500010B5FDF7E0FA4FF0B04304465B695A06F9
:10746000074A03F0010003F0510348BF40F0020057
:107470005361FFF79FFE2046BDE81040FDF7D1BAEB
:10748000002000583E20FCF7F9BD08B5FBF7B0FD21
:10749000FBF7E8FDFBF7F1FDFBF704FEBDE8084054
:1074A000FBF709BE08B5FBF708FEFBF707FEFBF785
:1074B00006FEBDE80840FBF704BE000010B5044618
:1074C000FCF7F0F80C4BA0F57A729A4212D84FF400
:1074D0007A73B0FBF3F05C43084BB3FBF0F0B4FB02
:1074E000F0F0022806D9BDE810400323B0FBF3F00A
:1074F00000F006B810BD00BFFFC99A3B40420F0024
:10750000013800D0FCE77047FCF720B908B503F05C
:1075100067F806F0E9F807F01DF9002008BD000043
:10752000024A0349034802F037BD00BF843C030010
:10753000C43C03009C3C030038B50446FDF764FAE4
:10754000054620461AF05AFD04462846FDF760FA23
:10755000204638BD37B504460191FDF755FA01992B
:10756000054620461AF00AFD04462846FDF750FA63
:10757000204603B030BD38B50546FDF745FA044650
:1075800028461AF043FD2046BDE83840FDF740BAD2
:107590000A4619B1024B00211B681847704700BF0B
:1075A0000C0C002000F4E040B0F5805F04D0A0F5A2
:1075B0000053584258417047012070470E4B03401A
:1075C000B3F1607F06D1B1F5885F14BF6FF086001C
:1075D00000207047B3F1707F0BD101F4E043B3F5A5
:1075E000005F06D111F4E06F0CBF6FF08600002041
:1075F00070476FF0860070470000C07F8A42F8B580
:1076000007460D4600F021819B4822F0FF01814290
:1076100010D09A4C22F4FF7323F00103A34209D047
:10762000974B994206D0974922F47F7323F00303C6
:107630008B4223D125F0FF01814210D08F4825F4E1
:10764000FF7323F00103834209D08D4B994206D08A
:107650008C4925F47F7323F003038B420ED115F080
:10766000FF030BD0884943F000738B4206D16A4078
:1076700032F0FF030CBF01200020F8BD05F0FE43EF
:10768000B3F1A06F17D102F0FE43B3F1A06F40F049
:10769000DE8082EA050333F47E1340F0D88015F4CF
:1076A0000040EAD0C5F30540C2F3054290428CBFCA
:1076B00000200120E1E7B3F1407F40F0B38002F009
:1076C000FE43B3F1407F40F0C28082EA050333F409
:1076D0007E1640F0BC8039462846FFF76FFF002831
:1076E00040F0B580694C12F47C1C04EA020438D0E6
:1076F000B4F1607FC2F3054C7AD16549D3B243F04F
:1077000000738B4278D003F17E410439012975D989
:1077100060498B4276D001318B4275D001318B426A
:1077200074D001318B426BD001318B426AD0013170
:107730008B4269D003318B4264D001318B4263D0DC
:1077400001318B4262D001318B4208BF402615F4D3
:107750007C1FC5F305435BD1664514BF00200120A3
:107760008BE7B4F1607F2BD14949D3B243F000736A
:107770008B426ED003F17E41043901296CD9454911
:107780008B426FD001318B426FD001318B426FD071
:1077900001318B4263D001318B4263D001318B4286
:1077A00063D003318B425DD001318B425DD001311A
:1077B0008B425DD001318B4208BF4FF0400C9CE7FB
:1077C000B4F1707FC3D107F4E043B3F5005F05D196
:1077D0004FF0010CC7F302230CFA03FC07F4E0435B
:1077E000B3F5005FB3D10126C7F302239E40AEE795
:1077F000B4F1707FABD1F1E71026A8E71426A6E715
:107800004026A4E71C26A2E72026A0E730269EE714
:1078100012F47C1F01D1B34217D02A047FF52DAF9B
:10782000634544E7B3F1106F11D125F01F6323F4D2
:10783000702363B902F0FE43B3F1106F07D116480D
:10784000104040F01060A84287E7012015E70020B3
:1078500013E74FF0100C50E74FF0140C4DE74FF0CA
:10786000400C4AE74FF01C0C47E74FF0200C44E770
:107870004FF0300C41E700BF001300060002000685
:107880000009000600040006FF0000020000C07F9F
:1078900003000002080000020000FFF62DE9F84393
:1078A000884617461C4600F013FD0546002859D1AE
:1078B000D8F80060B6F8009009F4E043B3F5804FC3
:1078C000F36808BF27F0010737EA030342D1002C11
:1078D00048D02F4A24F0FF03934211D02D4924F4BD
:1078E000FF7222F001028A420AD02B4A934207D04B
:1078F00024F47F7222F0030201F500718A4234D130
:1079000014F0FF0231D022498B4211D0214824F4D7
:10791000FF7121F0010181420AD01F498B4207D03B
:1079200024F47F7323F00303A1F5A0618B4204D1FB
:1079300042F00073194A93421ED0224648463169EC
:10794000FFF75CFE074668B9224648467169FFF7B3
:1079500055FED0B96FF0840500233046C8F80030DA
:1079600000F004FD2846BDE8F88304F0FE43B3F1BF
:10797000407F04D12304E0D56FF08605ECE7B3F136
:10798000A06FF7D0054B9C42D6E73D46EAE700BF23
:10799000001300060002000600090006FF000002B6
:1079A00038B5037904460D4633B9A36820462B60E9
:1079B00000F0DCFC38B938BDD0E9081200F09AFDBF
:1079C0000028F2D0F7E700232B60F4E700F0FE4335
:1079D000B3F1407F70B505460E4640F09980FFF741
:1079E000EDFD002840F0968015F47C1F05D0C5F30E
:1079F0000543032B13700DD86BE04C4B2B40B3F1B8
:107A0000607F69D14A49EBB243F000738B4231D1B8
:107A100010231370454C2C40B4F1607F6AD1444967
:107A2000EAB242F000728A4275D002F17E41043916
:107A3000012972D93F498A4271D001318A4270D0FE
:107A400001318A426FD001318A4211D001318A421C
:107A500065D001318A4264D003318A425FD001315E
:107A60008A425ED001318A425DD001318A424FD1D3
:107A700040214BE003F17E410439012901D8142350
:107A8000C7E72C498B4201D11C23C2E72A498B420C
:107A900001D12023BDE729498B4201D13023B8E72A
:107AA00027498B4201D14023B3E726498B42EBD0D3
:107AB00001318B42EDD003318B42E5D001318B4255
:107AC000E7D001318B42E9D001318B42EBD000236A
:107AD00013706FF085001DE0B3F1707FF7D101F4F2
